:03000000020A25CC
:0C0A2500787FE4F6D8FD758120020A6C91
:0C0C570048656C6C6F2C576F726C640069
:040C6D00021E000063
:100B4D00120C307BFF7A0C79577D017F01120BD689
:100B5D001208008E1E8F1FE51F451E60F3750C00D9
:100B6D00750D02AB1FAA1E7D017F02120B1480E0D2
:0A0BFF00EF1FAC0670011E4C600EE3
:0C0C090075110B7512BED512FDD511FA45
:030C150080E82252
:100C1800C2A6C2A58F80D2A77F027E00120BFFC298
:080C2800A77F027E00020BFF12
:100BAA00CFCDCFCECCCE1209D07C007D0A1209D08F
:040BBA00ED2430FFF7
:100BBE00D2A6C2A58F80D2A77F027E00120BFFC2E3
:080BCE00A77F027E00020BFF6D
:100C30007F38120C187F0C120C187F06120C187FCC
:040C400001020C1889
:100C44008D10E510BF0103148002243F4480FF127D
:030C54000C182257
:0A0C63008B20120C44AF20020BBEE0
:060BD6008B088A09890A60
:100BDC00E4F50B120C44E4F50BAB08AA09A90A8541
:100BEC000B82758300120991FF6007120BBE050B77
:020BFC0080E790
:010BFE0022D4
:070B7D0034FFFC7F0A7E003B
:080B84008E108F118C128D13ED
:100B8C00E4FB7F01FEEBC39513E5126480F87480DF
:0D0B9C0098500AAC10AD111209BE0B80E894
:010BA9002229
:040B14008A0A8B0BB3
:100B1800E4F50EF50F120C44850C0E850D0FD3E588
:100B28000F9400E50E9400401BE50F24FFFDE50E31
:100B3800120B7DAC0AAD0B120BAAE50F150F70DE78
:040B4800150E80DA2C
:010B4C002286
:040AB1008A168B17FF
:100AB500E4F51AF51B120C44D3E5179400E516640A
:100AC500809480400D7F2B120BBE85161C85171D4B
:100AD50080107F2D120BBEC3E49517F51DE4951606
:100AE500F51C85181A85191BD3E51B9400E51A9486
:100AF50000401BE51B24FFFDE51A120B7DAC1CAD68
:0E0B05001D120BAAE51B151B70DE151A80DAF7
:010B130022BF
:10080000E4F508F5097590FFC2932097177F14FE51
:1008100080072097097F147E00120BFF80F4750873
:100820000075090120961480032096097F147E002C
:10083000120BFF80F47508007509052095148003DC
:100840002095097F147E00120BFF80F47508007557
:10085000090920941480032094097F147E00120B50
:10086000FF80F475080075090D7590FFC2922097FE
:100870001480032097097F147E00120BFF80F4750B
:10088000080075090220961480032096097F147EC3
:1008900000120BFF80F4750800750906209514807E
:1008A000032095097F147E00120BFF80F475080069
:1008B00075090A20941480032094097F147E001285
:1008C0000BFF80F475080075090E7590FFC291202A
:1008D000971480032097097F147E00120BFF80F489
:1008E00075080075090320961480032096097F146B
:1008F0007E00120BFF80F47508007509072095141F
:1009000080032095097F147E00120BFF80F4750888
:100910000075090B20941480032094097F147E0035
:10092000120BFF80F475080075090F7590FFC290D7
:1009300020971480032097097F147E00120BFF80FC
:10094000F475080075090420961480032096097F29
:10095000147E00120BFF80F47508007509082095BD
:100960001480032095097F147E00120BFF80F4751C
:10097000080075090C20941480032094097F147ECC
:1009800000120BFF80F4750800750910AE08AF095E
:010990002244
:100A3100020B4DE493A3F8E493A34003F68001F283
:100A410008DFF48029E493A3F85407240CC8C333C6
:100A5100C4540F4420C8834004F456800146F6DF95
:100A6100E4800B0102040810204080900C6DE47EAC
:100A7100019360BCA3FF543F30E509541FFEE4938A
:100A8100A360010ECF54C025E060A840B8E493A351
:100A9100FAE493A3F8E493A3C8C582C8CAC583CA7C
:100AA100F0A3C8C582C8CAC583CADFE9DEE780BE34
:010C71000082
:10099100BB010CE58229F582E5833AF583E022501B
:1009A10006E92582F8E622BBFE06E92582F8E22265
:0D09B100E58229F582E5833AF583E493227F
:1009BE00EF8DF0A4A8F0CF8CF0A428CE8DF0A42E4D
:0209CE00FE2207
:1009D000BC000BBE0029EF8DF084FFADF022E4CC0B
:1009E000F875F008EF2FFFEE33FEEC33FCEE9DECD4
:1009F000984005FCEE9DFE0FD5F0E9E4CEFD22ED1A
:100A0000F8F5F0EE8420D21CFEADF075F008EF2F63
:100A1000FFED33FD4007985006D5F0F222C398FD54
:050A20000FD5F0EA22F1
:00000001FF
